:020000041000EA
:1000000000B5324B212058609868022188439860DF
:10001000D860186158612E4B002199600221596106
:100020000121F02299502B49196001219960352056
:1000300000F044F80222904214D00621196600F024
:1000400034F8196E01211966002018661A6600F04E
:100050002CF8196E196E196E052000F02FF8012189
:100060000842F9D1002199601B49196000215960AB
:100070001A491B48016001219960EB211966A021F2
:10008000196600F012F800219960164914480160C1
:100090000121996001BC002800D000471248134993
:1000A000086003C880F30888084703B5996A0420EC
:1000B0000142FBD001200142F8D103BD02B5186610
:1000C0001866FFF7F2FF186E186E02BD00000240BE
:1000D000000000180000070000035F00212200005C
:1000E000F4000018222000A00001001008ED00E03C
:1000F00000000000000000000000000074B24E7A12
:1001000000200420F7010010CB010010CD010010E9
:10011000C9010010C9010010C9010010C901001077
:10012000C9010010C9010010C9010010CF01001061
:10013000C9010010C9010010D1010010D301001045
:10014000C1010010C1010010C1010010C101001067
:10015000C1010010C1010010C1010010C101001057
:10016000C1010010C1010010C1010010C101001047
:10017000C1010010C1010010C1010010C101001037
:10018000C1010010C1010010C1010010C101001027
:10019000C1010010C1010010C1010010C101001017
:1001A000C1010010C1010010C1010010C101001007
:1001B000C1010010C1010010C1010010C1010010F7
:1001C000EFF30580103800BE00BE00BE00BE00BECA
:1001D00000BE00BEF2EB8871C0840210E084021001
:1001E0003802001090A31AE700201E49086006C8D4
:1001F00081F3088810471C480068002801D00020BF
:10020000F3E70DA40ECC002902D000F012F8F9E7B4
:100210001649174A002000E001C19142FCD115495E
:100220008847154988471549884700BEFDE701C939
:1002300001C29A42FBD37047E0840210E000002024
:100240003429002034AD02100000042000000420F6
:1002500034AD021000100420001004200000000043
:100260007047000008ED00E0000000D034290020B5
:10027000F438002015490010310400100D49001019
:10028000F0B5D6464F464646C0B517000E0086B0BC
:1002900008220021824602F0CBFE7B1C00D171E0D7
:1002A0000C21574A574804F0E3FD30000EF0E6FCFD
:1002B000554B01259846554B994637E030000EF0D6
:1002C000E7FB02AC01000E22200002F0B7FE3B1259
:1002D0000C212000E771237215F0A8F82100A081FD
:1002E00030000EF007FC002800D07FE0082200213B
:1002F000200002F09DFE2100300013F0C5FE020038
:1003000043486388616882421FD04846009101904B
:100310002900404604F0ACFD6188BBB28B426AD133
:100320003C48013501F08CFC0D2D26D030000FF03B
:1003300041F80028C2D0384804F018FD504606B0F5
:10034000E0BCBA46B146A846F0BD344E00912E48F6
:100350002900019604F08CFD6188BBB28B424AD122
:10036000626861882E4804F083FD524601231370B1
:100370006388538063685360E0E70C21294804F0E8
:1003800077FDDBE7214B0C211A001E48994604F04B
:100390006FFD30000EF072FC1B4B012598461C4F80
:1003A00002AC0DE04946009201910200290040464E
:1003B00004F05EFD0135174801F042FC0D2DDCD044
:1003C00008220021200002F033FE2100300013F04B
:1003D0005BFE63886268B842E4D1104900920191E3
:1003E0003A002900404604F043FDB9E701000E48F9
:1003F00004F03EFDA2E73A000C4804F039FD9DE709
:100400009827021050270210AC270210A0290210D2
:10041000A2FBFFFFB80B0000F4270210E827021030
:10042000C8280210F8280210342802106028021090
:10043000F0B5DE4657464E464546E0B59D4C08268B
:10044000A54404F0F9FBFA20C00001F0F9FB3420C8
:1004500002F01EFE042304000293033B012200214C
:1004600000930196002307F083FA934B0A2523603B
:10047000924B25632362924B482063620C23A36254
:10048000013BE36202F004FE0223070001930D33F7
:10049000032221000093053307F090FA39001BA8CE
:1004A00009F024FA874A1BA900238EA80EF090F9C0
:1004B000854B86488E9304F059FC00230593844BAA
:1004C000844A0493442301933F3B0093824903965B
:1004D000029504331BA809F02FF9041E07D0210050
:1004E0007E4804F0C5FC7E4801F0AAFBFBE7012131
:1004F0001BA80DF04BFD17AA11007A4B61CB61C10F
:100500001B68794D0B600294784C03920023002203
:10051000009401958EA80EF0AFFC011E06D0744821
:1005200004F0A6FC6E4801F08BFBFBE702008EA8EE
:100530000FF076FE22002B006E4804F099FC002795
:1005400001F0A4FC6C4E36184F41002F00DAADE0EC
:1005500001235B420A93694B15AC0993684B9A4699
:10056000684B0C93684B9946684B0893684B9B46C5
:10057000684B0F93684B0D93684B1193684B109326
:10058000684B0E93684B0B93684B9846002004F021
:1005900057FB4A3829283AD8099B80001B589F46A8
:1005A00052460C210C9804F063FC8EA80EF066FBFA
:1005B00001250696079757460CE0290000920197FF
:1005C0000200484604F054FC0135454801F038FB70
:1005D0000D2D5FD008220021200002F029FD21000E
:1005E0008EA813F051FD638862684045E5D10899F3
:1005F00000920191424629004846BA46069E079F4E
:1006000004F036FC58466268618804F031FC484BBF
:100610005A6A974212D89B6AB34201D297420DD0D0
:100620000B9804F0A3FB002701F030FC414E361874
:100630004F41002F02DA01263F4F7642142001F08D
:10064000FFFAA3E78EA80EF0B5FE01000E9804F0A5
:100650000FFCDCE707F028F805042D0C29000D98A5
:1006600004F006FC2A0020008EA9FFF709FE23787B
:10067000002BCCD00A95CAE70A9B013312D00A9D01
:100680001098290004F0F4FB2A008EA912A8FFF7A5
:10069000F7FDBCE70C210F98BA46069E079F04F0B1
:1006A000E7FBB4E7119804F061FBB0E70126224FA5
:1006B00076424DE794F8FFFF0C380210000004402A
:1006C00020A10700645E0210D83702105C290210D6
:1006D0009A99D93F0000FA426606594484290210CB
:1006E000B80B00002C2B02100BA304000100FF002C
:1006F000A4290210C029021000127A002837021023
:10070000A029021050270210AC270210E82702107F
:10071000C8280210F8280210402A0210682A021085
:10072000942A0210D42A0210EC2A0210A2FBFFFF26
:1007300000400540C0E1E400FFFFFF7FF8B5204B1B
:1007400057469A46D0231B06454698460723DE4661
:100750004E4699461B4BE0B5002400259B46534668
:100760005A59002A22D0434619680F274B005B18BC
:1007700015491B015B18E108080008308000C358C8
:10078000484620408000C3403E001E401F420DD01E
:100790003300834018003C310C4B8900C85016428E
:1007A00004D05B465B59002B00D0984701340435D8
:1007B0001E2CD4D1F0BCBB46B246A946A046F8BD1B
:1007C000802D0020F82D0020004101400040014014
:1007D0004B1C06D001238B40002A03D0D0221206E6
:1007E00053617047D02212069361FAE74B1C08D080
:1007F000D0231B06586801238B401840431E9841A4
:1008000070470020FCE7C0467047C0467047C046AE
:100810007047C0467047C04610B506F0F9FF10BDDE
:1008200070B50D00140006F0F3FF044B04481D6082
:10083000044B1C6007F064F870BDC046782D0020A2
:10084000490800107C2D00200123F0B5174DD0225F
:100850002C68C646A340120600B55362144B1968B3
:100860009623DB0099421DD0124B994218D01248B2
:1008700001F0B6FE06000123D02798463F06434606
:10088000A340300000217B6101F064F942462B68EF
:1008900030009A400021BA6101F05CF92C68EEE763
:1008A000E326E8E7D0267600E5E7C046782D00206D
:1008B0007C2D00209808000020A1070010B508003A
:1008C000002101F047F910BD10B5006A06F07AFF6B
:1008D00010BDC046944610B51A006346006A21F068
:1008E00097FE10BD10B50400416A006A06F0E0FEF4
:1008F0000221236A0E485A681818016018680A40D5
:1009000005314840C831014080204001181801607D
:1009100008495B181A60206B012100F071F9E06A48
:10092000012100F06DF90121A06A00F069F910BD04
:10093000043000000420000010B501F0A7FA10BD3B
:1009400010B501F0A3FA002905D0FA220023920085
:1009500001F084FE10BDFA21890001F041FEF9E7A3
:1009600010B5080001F06CF910BDC04610B54B1C65
:100970000AD08C00002208000C2100F059F9002256
:10098000024BE250024BE25010BDC046F82D002051
:10099000802D0020F0B5C6460C001E0000B54B1C93
:1009A0002CD0264B8900CA50254D264B6A68CE5064
:1009B0002B689C462300203B23D419001F00130002
:1009C000CB40DB0715D46346134328D11E4B984612
:1009D000002F1FDB0121B94001206346A0401143D5
:1009E0001843424603C500F047F901210D2000F0ED
:1009F00061FA01223100200000F01AF980BCB846EB
:100A0000F0BD1F00202311001B1B99406346E340EB
:100A1000CB18D6E7202301211B1BD940DCE700219E
:100A20000D2000F047FA28686968074B1A009846BD
:100A300000F038F92B686A689C46C9E7F82D002059
:100A400038290020802D00203D07001070B50C00D3
:100A500015004B1C09D0080000F036F90123D02204
:100A6000A3401206002D01D0536270BD9362FCE7D3
:100A700010B50400342102F017FB200010BDC04661
:100A80000368054A1B6C10B5934203D1006A06F057
:100A900099FE10BD9847FCE7C9080010F0B557460D
:100AA0004E46DE464546E0B583B004001700994641
:100AB00000914B1C39D00368334A9B68934254D150
:100AC00008000D0000F000F90123D022AB4012060F
:100AD000936223682D4D9B6AAB424DD101F0D6F94C
:100AE000019023689B6AAB423BD101F0CFF906002D
:100AF000274B009A9846D0231B069A460123934021
:100B00009B4623681A69424517D1524650685A4697
:100B10001040421E90419B6AB84215D1AB421AD197
:100B200001F0B4F9801B4845EBD9002003B0F0BCBC
:100B3000BB46B246A946A046F0BD200000999047AA
:100B400023689B6AB842E9D0AB4219D101F09EF903
:100B5000019BC01AEAE720009847801B8145D0D24C
:100B6000E3E7200098470600C2E700229847236881
:100B7000064D9B6AAB42B1D0200098470190B0E788
:100B800020009847E4E7C0464D0A001039090010DC
:100B9000ED07001010B5040004F04EF82368154A64
:100BA0001B6B934223D1616A206A06F081FD02210A
:100BB000236A11485A681818016018680A400531FC
:100BC0004840C831014080204001181801600B499D
:100BD0005B181A600121206B00F012F80121E06A15
:100BE00000F00EF80121A06A00F00AF810BD200004
:100BF0009847FBE7E50800100430000004200000DF
:100C000010B54024074A83009A181268C000544067
:100C1000C0222240044C1B191A60044BC0184160CA
:100C200010BDC04604C0014004D001400040014056
:100C3000D02330B507241B0615001A6853009A18F4
:100C4000C3082040800081401800084C3C3012014D
:100C500080009B0001519B18002D03D0044A9B1873
:100C6000196030BD034A9B181960FAE70040014043
:100C70000061014000710140D0231B061B68084938
:100C80009B0094465A5810B5104207D102435A505F
:100C90000D208022614600F06DF910BD01F03AFB95
:100CA000B437002010B5110004000D2000F03EFA0A
:100CB000D0231B061B6803499B005A58A2435A5075
:100CC00010BDC046B43700200123D0228340120655
:100CD00093629361084A83009A1811684022514038
:100CE00080320A400549C0005B181A60044BC018E6
:100CF000052343607047C04604C0014004D0014052
:100D0000004001408023DB051868000F7047C04693
:100D10000FB400B5084883B004F028F8049B002BFA
:100D200007D005A91800019103F082FD034804F0E3
:100D30001DF8012003F094FD402B0210A0290210A1
:100D400070B58C461600EFF3108472B60F490B682D
:100D5000002BFCD0BFF35F8F6346DB08C51807226A
:100D6000C05C63461A40012393401A0002400342CC
:100D700007D118432870BFF35F8F0A6084F310888F
:100D800070BD61463000FFF7C3FFC0462C0100D0A4
:100D9000F8B5CE4647468C4680B51C00EFF3108868
:100DA00072B61C490B68002BFCD0BFF35F8FA242C8
:100DB00021D80723994602E00132944218D34946CC
:100DC000012611408E40D308C718C35C1E42F3D1E0
:100DD000100033433B70BFF35F8F00220D4B1A604E
:100DE00088F3108800280EDBC0BCB946B046F8BDB9
:100DF00001204042EFE7BFF35F8F00230B6088F3D1
:100E00001088012040426346002BEDD00898FFF780
:100E10007FFFC0462C0100D0044A1078431CDBB28F
:100E2000172B00D9102313707047C046B42100203F
:100E300000B5054B83B00100009318221F2303481F
:100E4000FFF7A6FF03B000BD502B02101C3300209B
:100E50000021044B044ABFF35F8F02C39342FAD1CF
:100E60007047C046000100D0800100D0084B094AFD
:100E70001360094A1360094A1360094A1360094A5A
:100E80001360094A1360094A1360094A13607047E6
:100E90008080808000E400E004E400E008E400E0FA
:100EA0000CE400E010E400E014E400E018E400E0EA
:100EB0001CE400E01F2318401E3B8340002905D09E
:100EC000C021044A490053501360704780220149F1
:100ED0008B50FAE700E100E001228240034B1B68DF
:100EE00013405A1E9341D8B27047C04600E100E05B
:100EF00001238340014A13607047C04600E200E0CE
:100F0000054B10309B688000C358044A00209B1A90
:100F100047229A424041704700ED00E0B82100208E
:100F200010B5EFF3108C72B60F4A1368002BFCD08B
:100F3000BFF35F8F0D4B10309B6880001B580C4A2D
:100F4000934201D099420CD1084B9B681950BFF3D2
:100F50005F8FBFF35F8F0022034B1A608CF3108802
:100F600010BD01F0D7F9C046240100D000ED00E02B
:100F7000C1010010F0B5DE4657464E464546E0B585
:100F80008B4685B0EFF3108872B616005B4A136883
:100F9000002BFCD0B246BFF35F8F002558494D5758
:100FA000002D00DAA8E06B00564A01935B199B0004
:100FB000D418A77910300F7053498000896884468F
:100FC0000F58B91A472933D8012039008143CE7907
:100FD000564500D86AE0A1465646039307E05800FC
:100FE000C01880001018C479B4424DD901000623FE
:100FF000CB56002BF3DA081D4C46B24681460293CD
:10100000424B4E46043CA41B2405414E640D344320
:101010008C808D7101994919890052189380029B27
:101020003C4993715346D3715B461160936017E05E
:1010300039498F4260D139490127D15238490233A9
:10104000D3180439CB1A324A1B055B0D1343638056
:10105000344BE671A380FF23A3715B462743A36053
:101060006246294B9B689F50BFF35F8FBFF35F8F32
:101070000022224B1A6088F3108805B0F0BCBB46F2
:10108000B246A946A046F0BDB2460E1D4C46B1463A
:1010900088880293039B4005001504334844D31805
:1010A000C31A1B051A485B0D0343AAE79E1CB146F1
:1010B00091444E460F001C4DBF1A7F417D432D0DBC
:1010C000164FA571D752164F0433043FD318BF1BD8
:1010D000CB1A3F05043B7E0D1B050D4F5B0D3E43B8
:1010E0001F435346E3715B46A3600A4BA7806680AB
:1010F000044327000B60B3E701F00CF9240100D092
:10110000EC380020B821002000ED00E001BD000017
:1011100000E0FFFF01488047C101001000A1FFFF70
:101120000022002001BDFFFFAAAA0000F0B5DE46A4
:1011300057464E464546E0B583B0EFF3108972B688
:101140005D4A1368002BFCD0BFF35F8F5B4B5C4E96
:101150009A68030010339C0012599846B2423BD063
:101160008A424CD0574FBC46D71B472F34D8564BDA
:101170001F271D680740AA460125BD40802701950D
:10118000DD51BFF35F8FEFF30585AB46002D38D1FE
:1011900001231D0085402800554605401000984356
:1011A0008768AA46B94208D17CE073009B199B006E
:1011B00063449F68B9422DD0180006268657002E3A
:1011C000F3DAB9424CD05346002B1ED0C0213E4B1F
:1011D0000198490058501860384B9B681A51BFF36A
:1011E0005F8FBFF35F8F0022334B1A6089F3108843
:1011F00003B0F0BCBB46B246A946A046F0BD3200E3
:10120000EAE7A845C4D001F085F880232E4901986B
:10121000C850E1E70627DF57002F22DB7900C81905
:1012200085002E006644B0689860F079D871062079
:1012300030569871002826DB6046B688C01A7605BD
:101240003615761980190005204E400D30439880E0
:10125000CB191F499B000878634498710F70B2E75F
:1012600003005946002910D1FF318171194981804D
:10127000174865460178997117495B1B5B415943D3
:10128000090D01709FE71348E1E714491448C91A92
:1012900008394E02760D30439880124849080143C0
:1012A000D98090E70627C7570300002FB6DA5946C2
:1012B0000029EAD13200DBE7240100D000ED00E094
:1012C000C1010010B821002000E100E000E0FFFFB4
:1012D000EC38002001BDFFFFAAAA00000A2200206E
:1012E00000F0FFFF00F8FFFF0123034370B59C46A9
:1012F000EFF30581EFF3108572B6274A1368002BD0
:10130000FCD0BFF35F8F254A0400254BA41A64412B
:1013100063431B0D234C8900A6685BB27658664573
:1013200024D006215156994224D012215156994277
:101330002AD01E215156994228D02A21515699422D
:1013400026D036215156994224D0422151560524A7
:10135000994210D0144A117813708171BFF35F8FD6
:1013600000220D4B1A6085F3108870BDA2680F4CE7
:101370005450EFE700246100091989005218FF2139
:1013800091710B499180E5E70124F4E70224F2E72B
:101390000324F0E70424EEE7240100D0B821002064
:1013A000AAAA000000ED00E0EC380020C101001006
:1013B00001BDFFFF00B5074B83B001000093002281
:1013C00005230548FFF7E4FC002801DB1F23181A5A
:1013D00003B000BD6C2B0210F1380020024BC9187D
:1013E000890001607047C0464000003470B5114C60
:1013F000114DAC420FD2FF262368002B0CD0FFF713
:101400000BFD01002000FFF7E9FFA680BFF35F8F0F
:101410000834AC42F0D370BDFFF7FEFC01002000A1
:10142000FFF7DCFF2671BFF35F8F0834AC42E3D3D4
:10143000F1E7C046242900203429002010B504001B
:10144000FFF7EAFC01002000FFF7C8FFFF2323712C
:10145000BFF35F8F10BDC04610B504000120FFF739
:10146000E7FC034BC01880002060BFF35F8F10BD06
:1014700040000034034BC91889000160BFF35F8F3F
:101480007047C046400000340A4B1968EFF31080E3
:1014900072B60A68002AFCD0BFF35F8F1B68BFF3E7
:1014A0005F8F00221A6080F3108840BF0020002167
:1014B0007047C046C8380020F0B5DE4657464E4655
:1014C0004546E0B585B0EFF3058303221A40B34BE0
:1014D00091005F58012393409B4602925A468846EA
:1014E000AF4B1A60AF4B03935B46AF48436308238F
:1014F000FE5E002E37DABB881BB2002B00DBA4E0B7
:10150000BB79002B00D0E5E00823F95E002920DB41
:101510004B007A695B18DB00D3189D68DC686B1C94
:1015200000D104E1A04801004144826A0B69AE1A6F
:101530009B1A9E4215D30123026A029883401A42E5
:101540000FD0994800F09AFC8C4202DCCCD1854245
:10155000CAD940BF05B0F0BCBB46B246A946A046BA
:10156000F0BD0D61EDE77A69730091469B19DB00D0
:1015700099444B469C68DD6800F080FC8D42BADCE3
:1015800000D1F6E0002D00DADBE04A464B46526916
:101590001B699246039A934200D1CCE04A46082147
:1015A000785E52880004514610439847009001919C
:1015B0000099019A0B00134300D1C2E013000A0006
:1015C000002B00DBD9E020002900801A99414B460E
:1015D0009860D96000229B5E002B00DA8BE75D00EB
:1015E0007C69EA18D200A21800949468D268A246D6
:1015F0008A4200DD7FE702D1844200D97BE70824DC
:10160000A4463B81BC44009C00972F006546B4462D
:101610003E0006E05E00F218D200A2189768D26879
:10162000BA468A4207DC00D1B4E0F318DB00E518C3
:10163000E35E002BEEDA66464A46009F13802E805A
:10164000BB881BB2002B00DA5AE73A69EFF310812E
:1016500072B61368002BFCD0BFF35F8F0123BE88E6
:101660005B42BB8036B23B69BFF35F8F00221A60DA
:1016700081F31088002E00DA42E73B0008333A007D
:1016800099467D6973009B190824115FDB00484669
:10169000EB18002913DB9C680093A446DC6806E085
:1016A000A34240D00023F95E3800002906DB4F003A
:1016B0007F18FF00EF19FB68A342F1DD009B068055
:1016C00000201E5E1980002EDCDA1700BB79002B8B
:1016D00000D119E70023BB710823F95E4B1C00D130
:1016E00037E73D000835AC467C6903E084464B1C77
:1016F00000D109E74B005B18DB00E0180A00E15E4F
:1017000043881BB2002BF1DA01256D42EE1785608C
:10171000C66008257B5F9342E9D0634619803B8908
:1017200003803A81E3E7BB686345BBD9C6E7631C26
:1017300000D0F7E605E7534650461B699847002856
:1017400023D14B461B883A693B81EFF3108372B675
:1017500011680029FCD0BFF35F8F49467A880A8060
:101760003A697E80BFF35F8F0021116083F3108898
:10177000C1E6844200D805E7BDE60B4800F07EFBD9
:10178000009B019CC018614121E753460CCB00929D
:1017900001930DE7824500D847E74CE7A4370020C6
:1017A0003C700540B91400100040054070B52D4C48
:1017B0002569002D04D00A212B48FFF70FFE70BDCC
:1017C0002A4E0321294800F04FFBE660FFF724FB77
:1017D000274B0322C018D02322701B061B6801214F
:1017E0006370244B8000A3600F232061022063807C
:1017F00063694942A18019800231198647311D83EE
:10180000585218315A5275325C3999521832013196
:1018100099521832013199521832013199520835D2
:1018200018329D52023118329952183201319952B0
:10183000183201319952183201319952183201315E
:1018400099521832013199520B4B0C49DC6001302E
:101850003562FFF765FB01210320FFF72BFB084BE7
:101860001D60A8E720220020C83800200040054065
:1018700040000034FFFF1000A4370020B91400100E
:10188000386005400048704720220020F8B51F004E
:1018900008AB1B7804001600002B07D100F0F6FA05
:1018A00032003B00121A8B41002B51DB2269EFF30F
:1018B000108C72B61368002BFCD0BFF35F8F02232D
:1018C000E15E256900293ADB4B0060695B18DB00AB
:1018D000C218C35A6380BFF35F8F00232B608CF361
:1018E0001088069B9660D7601361079B53615388ED
:1018F00001335B045B0C181C002B1ED083B250809C
:10190000080418432569EFF3108672B62B68002B84
:10191000FCD0BFF35F8FA3881380A1802369BFF33E
:101920005F8F00221A6086F31088237801329A4074
:101930000849E3685B181A60F8BD0120DEE7BFF3D1
:101940005F8F00232B608CF3108801204042F3E767
:101950000020F1E73C20000070B582B000920193B6
:1019600001000269EFF3108472B61368002BFCD0FB
:10197000BFF35F8F0223C85E0D6900283FDB4A6911
:10198000430016001B18DB00D218F35A4B80BFF33C
:101990005F8F00232B6084F31088069B1361079BE5
:1019A0005361009B019C9360D460538801335B04B6
:1019B0005B0C1D1C002B20D0ACB2030455802343CC
:1019C0000D69EFF3108C72B62C68002CFCD0BFF3BD
:1019D0005F8F8C88148088800A69BFF35F8F002036
:1019E00010608CF310880A7801309040CA6808496A
:1019F00052181060180002B070BD0125DCE7BFF37B
:101A00005F8F00232B6084F31088013BF2E7C04610
:101A10003C20000010B543890A1493421ADD53009C
:101A20009B184269DB00D3180469EFF3108C72B67F
:101A30002268002AFCD0BFF35F8F5A88090494B251
:101A4000090C8A4208D00369BFF35F8F00221A6035
:101A50008CF31088002010BD094A22435A800123CC
:101A600002698371BFF35F8F002111608CF31088CE
:101A7000027804499340C268012052181360EAE7D3
:101A80000080FFFF3C20000040787047F0B5060062
:101A90000F0006246442E517A4197D4183B08D42EE
:101AA00012D80FD000F0F2F922002B00121A8B414D
:101AB000002B13DC002B41D03000390000F026FA57
:101AC00003B0F0BD8442EDD90024002500F0DEF91A
:101AD00022002B00121A8B41002BEBDD00F0D6F90F
:101AE00022002B00121A8B41002B0ADB00230193EA
:101AF000144B2200009314482B00FFF72DFF0130F8
:101B0000DAD02900114A1248536A994204D8956ADA
:101B1000A542D1D29942CFD10568EFF3108C72B6AD
:101B20002B68002BFCD0BFF35F8F0368BFF35F8F80
:101B300000251D608CF3108820BFE5E7002ABBD08C
:101B4000CCE7C04689140010202200200040054048
:101B5000C8380020F0B5C64600B582B004000D00BC
:101B600000F094F924184D41002D02DA01242F4D84
:101B7000644206267642F71736196F41AF4214D8F1
:101B800011D000F083F932003B00121A8B41002B78
:101B900015DC002B46D02000290000F0B7F902B078
:101BA00080BCB846F0BDA642EBD90026002700F065
:101BB0006DF932003B00121A8B41002BE9DD00F079
:101BC00065F932003B00121A8B41002B0ADB00231F
:101BD0000193174B3200009316483B00FFF7BCFE01
:101BE0000130D8D000233900B0469C46124A134831
:101BF000536A994204D8966A4645CCD29942CAD1D2
:101C00000668EFF3108772B63368002BFCD0BFF381
:101C10005F8F0368BFF35F8F66461E6087F310888F
:101C200020BFE5E7002AB6D0C9E7C046FFFFFF7F27
:101C3000891400102022002000400540C8380020F0
:101C4000F0B5C64600B582B0040000F01FF9FA22D4
:101C500006000F00200000230021920001F042F84E
:101C60008019794104000D1E02DA01242E4D6442D0
:101C700006267642F71736196F41AF4214D811D0B5
:101C800000F004F932003B00121A8B41002B15DCE6
:101C9000002B46D02000290000F038F902B080BCAB
:101CA000B846F0BDA642EBD90026002700F0EEF8BA
:101CB00032003B00121A8B41002BE9DD00F0E6F800
:101CC00032003B00121A8B41002B0ADB00230193E8
:101CD000164B3200009316483B00FFF73DFE0130E3
:101CE000D8D000233900B0469C46124A1248536AA5
:101CF000994204D8966A4645CCD29942CAD1066820
:101D0000EFF3108772B63368002BFCD0BFF35F8F00
:101D10000368BFF35F8F66461E6087F3108820BF9D
:101D2000E5E7002AB6D0C9E7FFFFFF7F891400105E
:101D30002022002000400540C8380020F0B5CE46E3
:101D4000474680B504000D0085B0EFF30583894652
:101D5000002B32D1404E336883422AD03F4FFB687C
:101D60003A7898461800039200F088F8039A131DF9
:101D700042469B009B5822001B1A9C462B00121ABD
:101D80008B411900002310008B4225DC22D020BF9C
:101D9000334B586A48452BD3401B9A6A431E9841DF
:101DA0000023A2425B41184305B0C0BCB946B0460F
:101DB000F0BD73688B42D1D1E9E7294900204B6A15
:101DC000AB42F1D38A6A5B1B591E8B41A242404150
:101DD0001843E9E78445DAD900F058F822002B00CF
:101DE000121A8B41002B05DA1D4A536A4B4529D242
:101DF0000020D9E7002301931A4B220000933800FA
:101E00002B00FFF7A9FD0028EEDD154B30C65A6AFE
:101E10004A4515D39B6AA34210D301003800FFF74F
:101E2000F9FD0F4A0020536A4B45BDD3926A5B1BF4
:101E3000591E8B41A24240411843B5E74A45ECD1B7
:101E400020BFEAE70020926A5B1BA24240415A1E73
:101E500093411843A8E7C046182200202022002002
:101E6000004005408914001010B5024A0248FEF7F0
:101E700067FF10BD882B0210203300200300416A49
:101E80000A00986A596A8A42FAD17047034B596A24
:101E90000A00986A596A9142FAD170470040054099
:101EA00070B505000E00184A536A1900946A536A07
:101EB0008B42FAD1200019002C00350024184D4126
:101EC000AB4216D813D0104B2A005B6A9D4203D94F
:101ED0000D494B6A9342FCD3934207D10A4A02E070
:101EE000516A994202D1916AA142F9D370BDA042D0
:101EF000E9D9054B5B6A1C005A1CEFD00122012472
:101F00006442E5175242E3E700400540064A536A3F
:101F10009942FCD807D1044B02E05A6A914202D19F
:101F20009A6A9042F9D8704700400540F8B5DE46FD
:101F30004E4645465746E0B505008B4618000A99BF
:101F4000914600F04DFB0A9B6C001E026419304B59
:101F5000A400E418636880469E4200D966602F1F83
:101F6000FBB29A46012B2FD9C0238022294FAD0006
:101F70009B0179591201E3181A6000291BD14B46C5
:101F800022685B015340E022134080225201A218D4
:101F900013605346012B2FD9802380229B01E31825
:101FA00012011A60434666607B51F0BCBB46B246E4
:101FB000A946A046F8BD786900F012FB0130430045
:101FC0001B18033BFDD2DAE75B46012BCCD1C023C3
:101FD00003229B01E3181A60023AA3681A42FCD05C
:101FE0004A46236852015A40E0231340802252019E
:101FF000A218084F1360AD005846032321684140E2
:102000000B40136001228240A3681A42FCD0C3E750
:102010000080004024330020F0B5D6464F464646A7
:10202000440098462418324BA400E41863688A469A
:102030009146C0B5FF2B02D880235B006360061F6A
:10204000F6B2012E2FD9C02380222A4F85009B0192
:1020500079591201E3181A6000291BD14B462268F6
:102060005B015340E022134080225201A21813600A
:10207000012E30D9802380229B01E31812011A60BF
:1020800080235B00636043467B51E0BCBA46B146A7
:10209000A846F0BD786900F0A3FA013043001B1890
:1020A000033BFDD2DAE75346012BCCD1C0230322F8
:1020B0009B01E3181A60023AA3681A42FCD04A4610
:1020C000236852015A40E023134080225201A21893
:1020D000084F1360850050460323216841400B40A0
:1020E000136001228240A3681A42FCD0C2E7C046B6
:1020F0000080004024330020014B8000C05870470E
:1021000024330020F0B5C646040000B5234816006D
:1021100098460D0000F064FA0100300000F060FA0B
:102120004346069A1B04120313439C462368060089
:10213000002B22DB1A4B1B48E218531E9A418023C6
:102140005242120B9B011203D218174B1A60174B05
:102150001A60130001688B43FBD12122144B2560C8
:10216000E318A6601A602268002AFCDA6246E26080
:1021700008221A6080BCB846F0BD3F232268134095
:10218000AB42D7D1A3681B051B0D8342D2D1EE22EF
:10219000E368D20213406345CCD1EBE7001BB700E4
:1021A0000040FDBF08C0004000E0004000F00040DB
:1021B0000430000010B580241C4BE4051C6000288E
:1021C0001AD001231A4C18431A4BDC611A4C4440B4
:1021D0001C62596298628021144BC9051960174826
:1021E00017490860E021C9041960002A07D180223C
:1021F000144B12061A6010BD0E4BD861EBE7530169
:102200009B1A9B009A18802312015B049A4209D200
:1022100013000D490B60074B5A608022094BD20511
:102220001A60E8E7094B1A00F3E7C04600B0054022
:10223000D3C007B0008005402D3FF84FFCFF0100E0
:102240000820014000A0054094370020FFFFFF0058
:102250008023024A9B000B43D362704700800540F5
:10226000002310B50100988A1B8B984710BDC0460B
:10227000162310B5010018885B88984710BDC0462A
:10228000F8B54746CE4680B50F1E18D014239946A0
:10229000043304000025012698464B46188843461F
:1022A00021681B88984701C4431E984101350640A8
:1022B000AF42F2D13000C0BCB946B046F8BD0126ED
:1022C000F8E7C046002370B504000D00988A054960
:1022D0001B8B984703000020002C01DB0130A0403D
:1022E0002900984755420000AA23064A1B011360A3
:1022F0008D235B00D3600449044B19605368002BA5
:10230000FCDA70470040024000B0FA000060024072
:102310007047C04610B50148FEF7FAFCAC2B02101E
:1023200070B5074D074EB54209D20024013E761B19
:10233000B608013608CD01349847B442FAD170BDD1
:10234000002702104027021070B5074D074EB54216
:1023500009D20024013E761BB608013608CD0134AF
:102360009847B442FAD170BD3427021040270210BA
:10237000054B064A06491A60064A074B1A601000C8
:102380000B689843FBD1704700E00040BFCDFBFED7
:1023900008C00040FE7F3C0000F00040044BDB6CB6
:1023A000002B03D18022034BD2021A607047C04633
:1023B000000011504C201150044A054B1A60054A88
:1023C0001368DB018033FBD17047C046FFFFFF017C
:1023D00000F0004008C000404022034B9A675A6753
:1023E0001A67DA667047C04600F0014010B5FEF784
:1023F0002FFD10BD70B52749274E284D761AB40819
:102400002200302C00D930222800920000F016FE65
:102410002F2C3BD823002A3B214A052B1BD93020E7
:10242000AE197107001B2600CB0F002902DAA100AC
:102430006A50661CC01AE3189B004108EB18C900DB
:10244000C9181A605A6008338B42FAD1012303423B
:102450001CD098438419A300EA50631C2F2C15D07C
:102460009B00EA50A31C2E2C10D09B00EA50E31CCA
:102470002D2C0BD09B00EA50231D2C2C06D09B004A
:10248000EA50631D2B2C01D09B00EA50054B9D6048
:1024900070BDC04600010010C00100100000002007
:1024A000C101001000ED00E0002310B5294C82B0FE
:1024B000A367FFF719FF0122274B1A60636C012BFA
:1024C000FCD10322254B1A60224A936B012BFCD1CD
:1024D000013300930121224A22480433FFF712FE00
:1024E000052301210093204A2048FFF70BFE00221C
:1024F000022104201E4BFFF78FFD00220121052041
:102500001C4BFFF789FD0022002107201A4BFFF723
:1025100083FD002200210820174BFFF77DFD80235B
:10252000DB000093002200210920134BFFF7FEFC83
:102530000022104B00210620FFF76EFD0420FFF75C
:10254000DBFD0E4900F04CF801000020FFF780FE93
:1025500002B010BD008000403CB0004030B00040F0
:10256000002F685900800240008C864700C002405E
:10257000001BB70040597307006CDC0240420F009B
:1025800001480421014B18474022002081220010FD
:10259000124A936F9B0815D29066D166002905D028
:1025A000FFE7FFE7FFE7516F106F704704B5802129
:1025B0000906C2175140002800D0C8431FF0E8FFA9
:1025C000002104BDF0B5146E556E576F166FFFF7FE
:1025D000E3FF1466556657671667F0BD000000D02C
:1025E000114A936F9B0813D210665166002905D0DB
:1025F000FFE7FFE7FFE7516F106F704704B5002852
:1026000001D00020C0431FF0C3FF002104BDC0461D
:10261000F0B5146E556E576F166FFFF7E5FF146631
:10262000556657671667F0BD000000D094464A4AC9
:10263000926F9208624601D228E0C046F0B5464E3D
:10264000346E756E776F366F00F020F89446424A0C
:1026500014665566576716676246F0BD94463E4A53
:10266000926F9208624601D254E0C046F0B53A4EED
:10267000346E756E776F366F00F04CF89446364ABC
:1026800014665566576716676246F0BD002B24DB5B
:1026900011D000293EDA00B5C943404200D10131D2
:1026A00000F038F8C943404200D10131DB435242C7
:1026B00000D1013300BD002AEBD1002801D100294F
:1026C00005D00020C90FC90701D1C043410800B59A
:1026D0001FF08EFF0022002300BD00B500290ADB99
:1026E000DB43524200D1013300F014F8C9434042A9
:1026F00000D1013100BDC943404200D10131DB436B
:10270000524200D1013300F005F8DB43524200D1C0
:10271000013300BD002923D1002B18D1002A0CD091
:10272000BC460D4F38667A6600210023FFE7FFE7BD
:10273000FFE77A6F386F67467047002801D0074877
:10274000010000B51FF054FF0022002300BD02006D
:102750000B00002000217047000000D0FFFFFFFFAA
:10276000002B00D0BFE0130C28D1002AE7D080B4A2
:10277000114F39667A66FFE7FFE730B4040C7B6FD0
:10278000396F1B0423433B667A66FFE7FFE7FFE7E9
:10279000C04684B27B6F3D6F1B0423433B667A6661
:1027A000FFE7FFE7C04600232C042D0C7A6F386F3B
:1027B00000196941B0BC7047000000D0F0B59446E4
:1027C0000025140E01D112020835140F01D1120197
:1027D0000435940F01D192000235D40F01D152007B
:1027E0000135D40B0134254F7C66254C3C660E0C1C
:1027F00093B2FFE7FFE7FFE73C6F6643360C7703D2
:10280000BE467343DF0B5B04C01AB941130C73431C
:10281000DB18C91ACE086643360CB64493B273432C
:102820001F0F1B01C01AB941130C73431F0B1B056B
:10283000C01AB941860D8F023E436643360C092DFE
:1028400024DB520A7243801A7703460A6643360C29
:1028500016235B1BDE40DF40BF1964466643821BC4
:102860007046043506330100D940A840C01900D392
:102870000131A24206D20023F0BD0000000000D0CA
:10288000FFFFFFFF121B0130F3D3F1E709277F1B86
:10289000FE406446A2B27243801A00D20139220C73
:1028A0007243130C1204821A99410B0070460435CE
:1028B00013370100F940A840801900D30131002BE3
:1028C00002D1A2420AD2F0BD013000D30131121B65
:1028D000FAD2013BF8D1A24200D2F0BD013000D3C0
:1028E0000131121BF7E7F0B51C0C00D080E00CB4EE
:1028F00000251C0A04D11B02160E334312020835B0
:102900001C0B04D11B01160F3343120104359C0B21
:1029100004D19B00960F334392000235DC0B02D1A9
:1029200092185B4101351C00971864410134464FF1
:102930007C66464C3C660E0CFFE7FFE7FFE7C046AF
:102940003C6F6643360C7703BE4697B27743C01B95
:1029500000D20139C01B00D201399FB27743C91B95
:10296000C91B170C77437E04FF0B801BB941CE08AF
:102970006643360C0C2D33DBB644120B1F053A436D
:102980001B0B97B27743C01B00D201399FB277432C
:10299000C91B170C77433E043F0C801BB941860DC1
:1029A0008F023E43664329277F1BFE400C3D77463E
:1029B000AF40BF1930BCA2B2ABB272437343801AAE
:1029C0009941220C7243130C1204801A994102009F
:1029D0000B000137001BA941F9D2781E0021F0BD80
:1029E0000C277F1BFE4077467F0BAF40FF19E0E7C7
:1029F00000245D1C07D0144F7D663966FFE7FFE7B2
:102A0000FFE7FFE73C6F95B29EB265436643401B0C
:102A1000B141150C1E0C6543664336042F0C3E4332
:102A20002D04401BB141994204D202000B0020004A
:102A30000021F0BD01D19042F7D3801A99410134B1
:102A40009942F2D3F6E70000000000D0FFFFFFFF3D
:102A500048404140484018B4134B5B68019308BD9F
:102A600018B4114B1B68019308BD94460F4A926F2E
:102A7000920805D2624618B40B4BDB68019308BD7F
:102A80000A4AF0B5146E556E576F166F6246FFF71F
:102A9000F2FF064A1466556657671667F0BD18B40C
:102AA000014B9B68019308BD982B0020000000D0CB
:102AB000FFB550404240504059404B40594000E023
:102AC000FFB5154F4C00640D03D0BC4204D10C037C
:102AD00014D80020090D09055C00640D03D0BC4228
:102AE00004D11C030AD800221B0D1B0501264B40F4
:102AF00009D44B4003D58B4200D18242FFBD99429D
:102B0000FCD19042FFBD0B43DB1803431343F5D0C8
:102B1000C9434918FFBD0000FF07000000B5FFF7DB
:102B2000CFFF804100BDC04600B5FFF7C9FF01D906
:102B3000002000BD012000BD00B5FFF7B9FF01D99D
:102B4000002000BD012000BD00B5FFF7B1FF8041AE
:102B500000BD012040054A00121804D85A0012187E
:102B600001D8002070470120704700000021002894
:102B700005D17047C1174840401AFAD0C90713B5AC
:102B8000064B1B6898470CBC441CA2401005120B56
:102B90000349091B09051943114310BDC43700201F
:102BA0001F04000010B54C00620D8023D218DB001A
:102BB000D21A5B057E2A10DD9E3A13DACC17090380
:102BC000490819435242D140640001341532202A89
:102BD00005DAD0400843604310BD002010BD084610
:102BE000604310BDC80FC018013810BD18B4024BA7
:102BF0005B6A019308BD0000982B002018B4024BBB
:102C0000DB6F019308BD0000982B002010B5014830
:102C1000FEF77EF8B82B0210132370B51D78012D36
:102C200019D014DD1D48FFF723FB06001C48FFF7F1
:102C30001FFB1C4C80223100200000F0FFF9022D08
:102C400006D01948FFF70CFB184B186070BD154CE7
:102C5000174BA364F5E7174B124C23606360A36026
:102C6000E36023616361A361E36123626362A36242
:102C7000E36223636363A363E36323646364A36422
:102C8000E36423656365A365E36523666366A36602
:102C9000E36623676367A367E367D9E753440000EC
:102CA00053460000982B00204C330000C43700200E
:102CB000B92C00100D2C001007B5604601880A0AD7
:102CC0000230DF2AFAD1C9B2820804D302884088D0
:102CD0000004104300E00068014A5050039007BD13
:102CE000982B002051434343C9188C46110C83B2E2
:102CF0004B4310B4040C614392B280B25043624320
:102D00001C041B0C001910BC59411304120CC018F0
:102D100051416144704700004840414048400E4BDB
:102D20005B6818470C4B1B6818470C4A936F9B084D
:102D300002D2094BDB681847F0B5146E556E576F19
:102D4000166FFFF7F6FF054A146655665767166754
:102D5000F0BD014B9B681847C8370020000000D029
:102D600007B548404140484001E0C04607B5420031
:102D7000120E03D0FF2A03D1420218D8C00DC0059D
:102D80004A00120E03D0FF2A03D14A020FD8C90D00
:102D9000C9050122414005D4414001D5814207BD0A
:102DA000884207BD0143491801D0C043001807BD40
:102DB00000B5FFF7DBFF804100BDC04600B5FFF75F
:102DC000D5FF01D9002000BD012000BD00B5FFF7EF
:102DD000C7FF01D9002000BD012000BD00B5FFF7ED
:102DE000BFFF804100BD491A002807D1084670473F
:102DF000C10FC90700D54042002817D0F44603B4DC
:102E00000B4B1B68984706BC81409E38404280317E
:102E100007D20B0607D04900490AC00510430843F2
:102E200060470130F8E7490A8902F5E7704700007A
:102E3000C437002041000A0E80231B067E2A0BDDCA
:102E40009E3A0BDAC1174002400818435242D04064
:102E5000490001314843704700207047C00FC01837
:102E600001387047C0420DD300B540004008002132
:102E700000F00EF8002801D4404200BD802000067A
:102E800000BD0000014BDB6918470000C837002077
:102E9000014B5B6A18470000C837002010B5014895
:102EA000FDF736FFA0290210132310B51C78114836
:102EB000FFF7DEF9012C0BD004DD010080220E4863
:102EC00000F0BCF80D48FFF7CBF90D4B186010BDB2
:102ED000094C01005422200000F0B0F8220020002C
:102EE000084980320368002B00D101600430904211
:102EF000F8D1E7E753460000C83700204C33000004
:102F0000C43700209D2E001043001B0E12D07F3BC3
:102F10000CD4162B09DC1722D21A01239340C217B6
:102F2000591E0A4010185B4218407047002804DA06
:102F30000348FAE7C00FC007F7E70020F5E7C046EF
:102F4000000080BF43000100021C1B0E11D07F3B1C
:102F50000AD4162B07DC1720C31A16389840002A0B
:102F60000DDA404208407047002805DA802000064C
:102F7000F9E7C20FD007F6E7FE208005F3E7411E10
:102F80008918EEE770B504000A4E30001FF050FBC0
:102F900020001DF0B7FB050030001FF0F1FA002DF6
:102FA00005D0054B2C199C4201D8280070BD034860
:102FB000FDF7AEFE2429002000000420D02B0210D3
:102FC00070B505000C000B4E30001FF031FB2800DF
:102FD00021001DF013FF050030001FF0D1FA002D75
:102FE00005D0054B2C199C4201D8280070BD034820
:102FF000FDF78EFE2429002000000420D02B0210B3
:1030000070B50500054C20001FF012FB28001DF0D4
:1030100083FB20001FF0B4FA70BDC04624290020B5
:1030200001480421014B1847502200208122001042
:10303000014B1B681847000050220020014B5B68C1
:10304000184700005022002070B5EFF3108572B6CB
:103050000E4B1C68002CFCD0BFF35F8F04680E6819
:10306000B44209D002680A60BFF35F8F00221A6081
:1030700085F31088002070BD0260BFF35F8F0022CF
:103080001A6085F310880120F5E7C046340100D0AE
:1030900010B5FFF777FF10BD10B5FFF773FF10BD38
:1030A00010B5FFF7ADFF10BD10B5FFF7A9FF10BDBC
:1030B0009A4200D2885470477047C046F8B5DE4641
:1030C00057464E464546E0B599460D9B0700884653
:1030D00093469B0728D00B9B002B3CD016000B9CE3
:1030E0000A9D3619321B013C4B464146285DB847C4
:1030F000002CF7D135000D9B9B070ED55B46EC1AD3
:103100000C9BA34209D91E002A004B4641462020B1
:103110000134B8470135B442F6D32800F0BCBB46B1
:10312000B246A946A046F8BD0B9B0C9A934214D216
:1031300013005D460C000B9A9E1A76192A004B4626
:10314000013521002020B847B542F7D10B9BA0469E
:10315000002BC4D1E1E71500CDE75E46002BBED1C0
:103160005D46DAE7F0B54F46D6464646C0B584B070
:103170009C460EAB1F78129B9146BA460D9C109E42
:10318000119D9B074CD4002D41D1B44248D201235C
:10319000129F1F40B8460C9B5F1E302303E0013492
:1031A0003B55A64201D9202CF9D14346002B00D132
:1031B00087E00C9B5F1E3023A54204D830E0013429
:1031C0003B55AC422CD0202CF9D1129BDB060DD5FF
:1031D000129B5B0557D4A64267D0A54265D00F9BD2
:1031E000102B53D0022B5BD0202C36D12023129CE5
:1031F00001930C9B4A460093039463460295FFF7A4
:103200005DFF04B0E0BCBA46B146A846F0BD01235C
:10321000129A13409846012313422DD1B442BAD3D7
:10322000129BDB061ED5129B5B05D8D4002CD2D195
:103230000F9B102B60D00F9B022B71D030230124E9
:103240000C9A13705346002B11D1129B5B0740D58B
:103250002B260C9A631C1655C9E72300013430262F
:103260000C9AD654202CC1D05346002BEDD02D26DD
:103270000C9A631C1655BAE7002F34D0013DB442B6
:1032800000D288E795E70F9B102BAFD1129B9B06CE
:103290003CD5202CAAD058230C9A13550134A3E70F
:1032A000202CA3D02300013407E0631E012CBFD0E3
:1032B0000F9A102A36D0022AD1D162260C9AD654FF
:1032C00092E7129BDB06CDD5129B5B0500D482E70B
:1032D00085E7129A2300160700D488E720260C9A67
:1032E0000133165583E70C2313405F1EBB41ED1AD3
:1032F000B44200D24FE75CE7129B9B060ED47823C2
:103300000C9A02241370302353709BE7202C00D1B9
:103310006CE778230C9A1355013465E75823EFE7DF
:103320006033EDE70C9AA61EB618129A920602D5E3
:103330005822327093E77822327090E710B5002857
:1033400000D110BD01F0C8FCFBE7C04610B5002855
:1033500003D04A680B681100984710BDF0B54E467F
:10336000DE4657464546E0B595B0834689469246C7
:1033700098461E9A1F9B10001900209EFFF7E9FB3C
:10338000002800D0D2E11E981F990122C44B52425E
:10339000FFF7C4FB002800D001E11E981F9901220D
:1033A000C04B5242FFF7D0FB002800D0D6E01E9859
:1033B0001F990022BC4BFFF7C7FB002800D0B5E0E7
:1033C0001E981F990022B94BFFF7A8FB002800D0D8
:1033D000ACE01E981F9900220023FFF79FFB0028F6
:1033E00000D0D1E000230B93229B5B0500D406267E
:1033F0000024302306E006AA013417321355013E9B
:10340000202C01D0092EF6D81E981F99FFF7CAFB71
:10341000A74BF2009B180CCB050008920993FFF70D
:10342000A9FB02000B001E981F99FFF714FB089AD6
:10343000099BFFF734FB06900791FFF7D7FB0700C6
:10344000FFF794FB02000B0006980799FFF703FBB8
:103450000022984B06900791FFF776FB002800D1D9
:10346000E9E001373800FFF781FB02000B00089804
:103470000999FFF759FB002801D000270135002EDC
:1034800000D1B7E0069513E0172306AA9B180A217E
:10349000380001341D19FFF7A3F8303129703800C6
:1034A0000A21013EFFF79CF8092F00D8E1E0070050
:1034B000202CE9D1069D20240CAB0693172706ABE0
:1034C000FF180DE028000A21FFF762F801343031BF
:1034D000280039550A21FFF75BF8051E00D1B7E037
:1034E000202CEFD10323229A1340012B17D1219BCB
:1034F000002B14D00B9B002B00D1E3E0219B013B60
:103500002193202B0BD93023219A06E006A9013400
:1035100017310B55944200D3A0E0202CF6D1229B0A
:1035200001940393219B0293069B21E0229B524628
:103530000493219B4946039358461E9B1F9C029669
:1035400000930194434600F043F90400200015B0B5
:10355000F0BCBB46B246A946A046F0BD229B5B0725
:103560000FD40322544B2299019203912199029185
:1035700000935246434649465846FFF79FFD0400D4
:10358000E4E704224D4BEEE71E9A1F9B002000212A
:10359000FFF761FA01231E901F910B9324E702238A
:1035A000229A54461A40229B06929B0700D1ACE017
:1035B0002600434D08942F1F3200E87843464946C1
:1035C000013DD8470136BD42F6D1089C069B043424
:1035D000002BBBD05746219AE31B9A42B6D915005F
:1035E00022004346494620200134D847E31BAB4222
:1035F000F6D3ABE72800FFF7BDFA02000B001E98D8
:103600001F99FFF728FA2B4B002206000F00FFF747
:1036100085FA0CAB0693002800D04FE7002230005B
:103620003900244BFFF790FA002800D046E7012329
:1036300001359D4342E70022069807991D4BFFF78D
:103640006DFA002800D01AE7002F59D1013716E78C
:103650000323229A1340012B00D1A6E0202C00D195
:103660005DE70B9B002B3AD02D23069A13550134AE
:1036700055E7069D202C00D11DE73023361906E0C2
:1036800006AA013417321355202C00D113E7A642A5
:10369000F6D12E230CAA0134069293550EE7C046AC
:1036A000FFFFEFFFFFFFEF7F65CDCD4165CDCDC1C2
:1036B000683A02100000E03F302C0210282C021063
:1036C000382C02100C23229A134257D0219B013B25
:1036D0002193A34200D916E7202C00D11FE7229B9B
:1036E0005B0704D52B23069A1355013417E7229B59
:1036F0001B0700D413E72023069A135501340EE765
:10370000FB0700D4BBE60137B9E6219B042B00D8A8
:103710004EE755464F46043CE4182A00434601351F
:1037200039002020D847AC42F7D141E70227229B3D
:1037300055461F409B0726D006975F46234EEC1C3C
:103740002A00B078434649460135B847013EAC42AD
:10375000F6D1069F002F00D1F8E65746219AE31BC9
:103760009A4200D8F2E6150022004346494620203E
:103770000134D847E31BAB42F6D3E7E6219BA342D3
:1037800000D9C0E6CBE6219B032BD5D9069754463A
:103790004F46033DED1822004346013439002020F6
:1037A000D847A542F7D1069FC6E7219B002B00D141
:1037B00054E70B9B002B85D0219B013B21939C421E
:1037C00000D2A0E6202C00D04EE7A8E6342C021050
:1037D000F0B54546DE4657464E46E0B59BB0249CC4
:1037E000259D824688469346994622002B0020005C
:1037F0002900FFF7AEF9002800D0C1E00122200027
:1038000029007C4B5242FFF79FF9002800D0B7E017
:10381000012220002900784B5242FFF77FF900284F
:1038200000D0ADE00022002320002900FFF776F948
:10383000002800D0BBE108940995089809998023D5
:10384000289ADB001A400F928022289E120116400F
:1038500032000E96289E0F000A901E4200D0A4E06F
:103860000B00034300D0CBE0002A00D012E232006C
:1038700006332693022313400C930223134200D0F5
:103880000AE2279B042B00D215E200270426043B02
:103890000E930022002320002900FFF73FF90028A3
:1038A00000D0C8E1554B289A134004930E9B039314
:1038B000269B0293089B099C0093019441464B462A
:1038C0005A465046FFF74AFD02002020289B00255B
:1038D000034059424B415B421840531C08934146F8
:1038E0004B464530D047FB17FC185C40FB0F1F27A9
:1038F0000A93731E0E930AABFF1806E020000A21FC
:10390000FEF76EFE0400202D08D00A212000FEF7ED
:1039100067FE013530317955092CEFD80523069320
:103920000E9B56460593002304930A3303930A9B88
:103930004146029312AB009330004B46089A019522
:10394000FFF710FC0C9B002B28D05F46279BC41B65
:10395000A34223D982461D003A194B4641462020F6
:103960000134B047A542F7D850465946279C421A21
:1039700001320023944200D395E1013018180DE084
:10398000289B009401950493279B0393269B029305
:103990004B465A4641465046FFF7E0FC1BB0F0BC90
:1039A000BB46B246A946A046F0BD01432AD10E9BB4
:1039B0003200002B00D15DE70027269B0026BB428A
:1039C00000DD82E10022002320002900FFF7A6F895
:1039D000002800D04BE1289B084A02961A40802319
:1039E000DB0013430493279B0393089B099C0093DC
:1039F0000194CDE7FFFFEF7FFFFFEFFFFFF7FFFF32
:103A000006232693B24B7800400DC018FFF7B2F89A
:103A1000B04AB14BFFF743F8B04AB14BFFF720F87B
:103A20003F03B04B3F0B3B430C900D9100220A9893
:103A30001900AD4BFFF70FF8AC4AAD4BFFF72FF86D
:103A400002000B000C980D99FFF70AF8FFF7AAF88F
:103A50000700FFF78FF8A74AA74B0A900B91FFF7D3
:103A60001EF80022A54BFEF7FBFFFFF79BF8A44AC8
:103A700006000A980B99A34BFFF711F80A900B91D7
:103A80003000FFF777F8A04AA04BFFF708F80200D4
:103A90000B000A980B99FEF7DEFF02000B000A905C
:103AA0000B91FEF7FCFF0C900D910A980B99020008
:103AB0000B00FEF7D5FF0022109011910C980D9984
:103AC000934BFEF7D2FF0022924BFEF7C9FF020094
:103AD0000B000C980D99FEF7C8FF00228E4BFEF7E5
:103AE000BFFF02000B000C980D99FEF7BEFF0A9A6B
:103AF0000B9B0C900D9180210020C905FEF7ABFFB8
:103B000002000B000C980D99FEF7AAFF02000B00B3
:103B100010981199FEF7A9FF0022724BFEF7A0FF43
:103B20007E4B0022F6183305FEF7B9FF02000B00AA
:103B30000A900B9108980999FEF7F0FF002808D029
:103B40000A980B990022734BFEF78FFF0A900B9196
:103B5000013F0A990B9A0B0011003A006332C62A02
:103B600012D802222898042610400E9A0C90002A9F
:103B700026D1279B042B05D9002800D0A1E0279B44
:103B8000043B0E93042642E00222289810400E9A2D
:103B90000C90002A13D1279B052B00D889E0002820
:103BA00000D084E0279B0526053B0E9332E080235E
:103BB0001B069C46AC446346089409933DE60526E3
:103BC0000B4300D1F9E608980999554A554BFEF781
:103BD000B3FF002808D0089809990022524BFEF73D
:103BE0009DFF002800D0E8E6269B002B34D00F9BD9
:103BF000002B31D0269B013B2693279BB34204D94F
:103C00000C9B002B59D002230C9300230E93002F02
:103C100000D13EE60A9A0B9B08980999FEF725FF0A
:103C2000002208900991002320002900FEF776FF6A
:103C3000002800D136E6089C099D289A80203B4B3D
:103C400000061340220004930E9B0393269B0293CD
:103C50002B180092019331E6279BB342D5D90C9BD8
:103C6000002B2AD000230E9302330C93CFE7289B1E
:103C70002E4A8020089C099D1A408023DB001343B4
:103C800022000493279B000603932B1800920193B4
:103C900002967DE6052695E600230E930233002763
:103CA00004260C93F5E54B1E1B191B1A65E602232F
:103CB0000C930526AEE70423E7E5279B9B1B0E9399
:103CC000A5E7022304260C93A1E7DB1B5E1E79E621
:103CD00001FCFFFFFB799F501344D33FB3C8608BB7
:103CE000288AC63F0000F03F0000F83F61436F6341
:103CF000A787D23F71A379094F930A400000E03FA4
:103D00001655B5BBB16B0240EF39FAFE422EE63FC5
:103D100000002C400000244000001840FF03000079
:103D20002D431CEBE2361A3F80842E41FFF7FFFF44
:103D3000F0B55746DE464E464546E0B5A3B01F00F7
:103D40002C9B92460C93C94AC94B8B460B901A6028
:103D5000002900D1BFE1002338789946002800D11E
:103D6000C1E1C44B4C460993C34B0E935B460A9387
:103D700008E0220053460A990B9DA8470134387881
:103D8000002876D001372528F3D110239B46083B25
:103D90009946043B9846033B002602259C4638780A
:103DA000791C0300203BDBB2102B03D8099A9B003F
:103DB000D3589F460300303B092B36D900252A28CB
:103DC00000D1A7E000230D932E283FD00300683BCD
:103DD000DBB2122B1BD80E9A9B00D3589F4663462A
:103DE0000F001E43DBE70F002E43D8E743460F00CA
:103DF0001E43D4E75B460F001E43D0E74B460F003F
:103E00001E43CCE7802378785B001E4301310F000E
:103E1000672845D82428ACD90300253BDBB2422BC8
:103E2000A7D896499B00CB589F460025AB005D194B
:103E30006D002D1808780F000300303B303D013134
:103E4000092BF3D900230D932E28BFD130228020D7
:103E500052429046C000064378780B0080444246A8
:103E6000092A00D851E12A2800D15EE10F00013172
:103E7000ACE70A9BA1469B46CA4503D801235B4297
:103E80005344994653464A46594600200B9DA8473D
:103E9000200023B0F0BCBB46B246A946A046F0BD08
:103EA0000300693BDBB20F2B00D962E70121994087
:103EB0008846734A11408B46110042460A4200D0A0
:103EC00013E10A2B2FD0072B00D052E70C9D01CD18
:103ED000002800D134E121231E43B0461F260D9A4D
:103EE00012ABF618A14694465946340002E0000988
:103EF00020290AD00F26064032003732092E00D87A
:103F0000073A013162540F28F1D863464C468B467C
:103F10000D9322E10C9B20CB002D52DB78780C9383
:103F20000F0001314EE70C9B0D9904CB90469B4648
:103F3000002900D128E1434618784144002801D1E6
:103F400000F029FC0D9A94460A0004E059780133E8
:103F5000002900D195E19A42F8D163460D9343467A
:103F6000D31A0F93730500D46CE10F9B0D9A934203
:103F700000D90F9202231A0032400C92334200D132
:103F800091E20C930D9BB9461E1943461B1BA84694
:103F900022001F000B9D08E0541C53460A99A847B5
:103FA000385D002800D163E122009642F4D14546F5
:103FB0004F4634000C9B002B00D097E15B460C93DE
:103FC000DDE60222787816430F006D420C93013132
:103FD000F8E678786C2800D159E180235B001E4315
:103FE000013114E780239B0078781E4301310EE7EE
:103FF0007878682800D150E1802301311E4306E71C
:10400000672800D1C2E0472800D134E1452800D11B
:1040100034E107210C9B0D9A07338B43190004965A
:10402000039502920CC90B98009201930C91220007
:1040300053460A99FFF7CCFB0400A0E6462800D1BE
:10404000A8E007210C9B0D9A07338B4319000496B7
:10405000039502920CC90B98009201930C912200D7
:1040600053460A99FFF77AF9040088E6313D0010BB
:1040700090370020CC380210103902105C39021041
:10408000419000002200534625200A990B9DA84725
:10409000013474E60C9B04339B46631C9846B607B8
:1040A00000D4FFE00C9B220018780A9953460B9E1F
:1040B000B0476419012D00D849E245460B9EB84629
:1040C0000A9F2A005346013539002020B047A542F7
:1040D000F7D1474672E7DB4B38780B9300239946BC
:1040E000002800D03DE60024C6E66F2855D000D851
:1040F000BCE21023782800D19EE09E430A239C4610
:1041000000230F930A339B464DE000218A0052188A
:10411000520001331118187830390200303A092A58
:10412000F4D90D911F00591C50E60C9BB87804CBB4
:104130000237D143C9170A400D920C93791C45E60A
:1041400010233000984311331843802380463000F9
:10415000DB0018401E4200D1C0E643460693082308
:1041600005930D9B220004931023039300230293D5
:104170005B4601931AAB00930A9953460B98FEF7DE
:10418000F1FF0C950400FAE50139D4E680231B0108
:104190001E433EE720231E4353E708239C4600238B
:1041A0000F9308339B4680233000DB0018401E42EB
:1041B00000D11AE10D233100994380230A009B00AE
:1041C0001A409146194200D0C3E180230A005B00E7
:1041D0001A4090460C9A04320F92194200D08FE296
:1041E0004B0600D597E10B0600D4E5E20C9B1B883B
:1041F00099464B46002B00D005E210339943002826
:1042000000D100E2002398460D9B069104935B4683
:1042100003930023059502934346D9E0582808D01C
:10422000622878D102239C4600230F9302339B46D9
:10423000B9E720231E43103B9C4600230F93103305
:104240009B46B0E702231A0032400C92334200D161
:1042500005E20C934346B9460B9E0A9FA8461D1BD8
:104260002200534639000134B047285D0028F7D1B9
:1042700045464F469EE680231B011E4320231E43D6
:10428000C7E662460D9242469B1A0F936AE6C02328
:104290009B00B8781E43F91CB9E5C023B8781E43CB
:1042A000F91CB4E5012D00D84AE1631E9946A944E2
:1042B0004B4652462600A146BA461C001700A846A7
:1042C0000B9D32003B00013620200A99A847A642E8
:1042D000F7D13B0057469A464C460C9B3200187863
:1042E0000A9953460B9D4444A84767E6A0460F9B96
:1042F0009D4200D862E62C190B9E4546B8460A9F9F
:10430000E41A2A005346013539002020B047A5425F
:10431000F7D1474652E680233200DB001A40904630
:104320001E4200D1F3E011218E43B446984680230B
:1043300062469B001A40934662461A4259D1802336
:104340005B001A4091460C9A04320F9262461A4260
:1043500000D0A0E163465B0600D5D4E063461B06AF
:1043600000D412E20C9B00229B5ED8171918414022
:1043700089B2DA0F0C92002B00D187E188461F2604
:1043800012ABBB461495F71845464E46E046A1468B
:1043900006E028000A21FEF723F90500202E08D0A8
:1043A0000A212800FEF71CF901363031B955092DD4
:1043B000EFD84C46C446B1465F46149D634606930B
:1043C0000D9B059504930A2303930C9B02934B4684
:1043D00001931AAB220000930A9953460B98FEF7FB
:1043E000C1FE0F9B04000C93C9E40C2331009943D8
:1043F000E3E60822072191460C9B07338B4399443F
:104400004A460ACB08000C92DA0F9346184300D0B4
:1044100085E0002399464346002B2FD1002200233C
:104420001092119300231F26994612ABF6185B4693
:104430001495BB46E04637000F934E46A146109CAC
:10444000119D05E0B930001004000D00202E0CD0A5
:104450000A22002320002900FEF700F9013630323D
:10446000BA55002DF0D1092CEED80F9B1094119560
:104470005F464C46C446B1469B46149D6346069330
:104480000D9B059504930A2303935B4602934B46C9
:1044900001931AAB220000930A9953460B98FEF73A
:1044A00061FE04006BE40F9B9D4200D896E18023DF
:1044B000DB000C930F9B2E19F61A43460F930D9BAE
:1044C000A84699465346BA461F000B9D22003B0062
:1044D000013420200A99A847B442F7D10F9B4546E2
:1044E00098464B460D933B0057469A4643461878EC
:1044F000002800D162E56B1C0F930C9B002B00D1B0
:10450000A8E600233DE50C9B1B78190031E710233A
:104510009E43B4460BE70C9B1B78994669E6DA1775
:10452000129213924A401092129813990A005A401C
:104530001192109A119B121A8B411092119371E7EC
:104540000C9B220018780A9953460B9CA0474446BE
:1045500034E50822072690460C9B0733B343984462
:1045600042460C921A685B68149208931300089AEA
:10457000134305D11033994300239846002838D1BE
:1045800061208B0600D5412000231F2698465A46FD
:1045900012ABF618030018920F9A0A3BB146169513
:1045A000179419974446664690469B46149F089D6B
:1045B000159103E007000D00202C13D032000023DA
:1045C00038002900FEF74AF85B46D2B2D318092A10
:1045D00001D8130030334A4601341355A845E9D1B8
:1045E000BE42E7D9189BA0469B461599169D179C7D
:1045F000199F0D9B069104935B4603930023059539
:104600000293434644E761208B0600D541201F26D4
:1046100012ABF21803000A3B0C934B464646A146E8
:10462000A8461C005D461491BB46170002E004003A
:10463000202E0DD029002000FDF7D2FF0C9BCB18B7
:10464000092901D80B0030330136BB55AC42EED2FC
:104650005F464C46AB4614994546B046D4E50F9BA1
:104660009D4200D926E701330F93F3E51023320072
:104670009A439446692800D0A2E080233200DB00F0
:104680001A4090461E4200D151E64CE64346002BAC
:1046900000D093E673E60C9B1B68DA0F002B70D0FA
:1046A000D9175B184B4098461F2612ABF618A14647
:1046B00014955C464546BB46E04637000C9206E042
:1046C00028000A21FDF78CFF0500202C08D00A21C4
:1046D0002800FDF785FF013430313955092DEFD819
:1046E0005F46C446A3464C46149D0C9A6346069307
:1046F0000D9B059504930A23029203935B4667E69C
:104700000C9B1B689846002B03D11033994300285B
:104710002DD161208B0600D541201F2612ABF61843
:1047200003000A3B4A460C93149143463100A846C5
:10473000A1465E461400BB461D000F0002E00500C6
:10474000202C0DD031002800FDF74AFF0C9BCB1820
:10475000092901D80B00303301343B55B542EED264
:1047600023005F464C464546B346994614990D9B37
:10477000069104935B4603930023059502934B46F1
:1047800026E64346002BB1D18EE70C9B1B68D81759
:1047900019184140EDE580233200DB001A400F92EA
:1047A0001E420FD00230020032400F92304219D028
:1047B0000023A0460F939AE50C9B1B68994618E5C9
:1047C00016009BE402231A0032400C92334200D0C0
:1047D0008CE5002D00D06DE6FFF7F0FB01330F9361
:1047E000FFF7D0FB0C93F4E70EB410B5012485B0AD
:1047F00007AA08CA01000392009204486242FFF728
:1048000097FA05B010BC08BC03B01847B1300010CF
:1048100000B585B003910121029000930348130075
:104820004A4202A9FFF784FA05B000BD4D330010DB
:1048300010B5094A0300146884B0002C08D0012286
:1048400000910648524203A9A047012004B010BDC0
:1048500000F08CFA0020F9E7903700203D3300107B
:1048600000BEFDE77047C046094A1368002B06D01A
:1048700008491818884208D8106018007047064B7D
:104880000449181813608842F6D901235B42F4E703
:104890008833002000000420F438002000207047F6
:1048A000012040427047C0468C4610B511000028D8
:1048B00005D1044B60460CCB00F068F910BD012017
:1048C0004042FBE770380210013810B5140001288F
:1048D00007D8080001230022210000F0DDF82000A5
:1048E00010BD01204042FBE7012040427047C04616
:1048F000012040427047C046012040427047C046F8
:104900000222002382425B411800704710B5FFF776
:10491000A7FFC04670B5FDF703FD074D074EB54232
:1049200009D20024013E761BB608013608CD0134B9
:104930009847B442FAD170BD4027021050270210A8
:1049400070B504000126022584B02368BFF35B8F95
:104950001E4209D12A001A401D4207D020BF2368F9
:10496000BFF35B8F1E42F5D000200AE00392009255
:1049700003230222200003A9FEF766FB0028E4D0EF
:10498000012004B070BDC0460123BFF35B8F0360FC
:1049900040BF70470023BFF35B8F036040BF704789
:1049A000030010B5080011001B68984710BDC046F1
:1049B000F8B5437D07000D001600002B38D0002A03
:1049C0001ADD0B780A2B18D00020012E09D0012403
:1049D00021006B5C01340A2B1AD0B442F8D1864214
:1049E00003DD311A3B6828189847AD19013D2B7833
:1049F0000D3B5A4253413B75F8BD037D002BE3D17B
:104A000002210E483B689847012EEED00120DEE7D8
:104A10006B1E5B5C0D2BE0D0884203DA091A3B6801
:104A200028189847054802213B6898472000D4E79A
:104A30000368110028009847DEE7C046B83A021024
:104A4000F8B50B680D005A1CCB180A601871802A43
:104A500000D0F8BD0E4B1C68002C15D00D4E0F1D5C
:104A600002E02469002C0FD02368002BF9D03368B2
:104A7000002B01D0A342F4D1200039002A68FFF7AF
:104A800097FF2469002CEFD100232B60E1E7C0469B
:104A90007833002084330020F0B54646D6464F4692
:104AA000C0B582B090461C0006000D00FDF7EEF97F
:104AB00000232F4A12184B41002B02DA01222D4B02
:104AC00052422D4908008A461DF04AFD81466B1C62
:104AD00003D130001CF096FE0500002C27D0274F94
:104AE000274B1C68002C18D04346002B21D1254BA6
:104AF000984602E02469002C0FD02368002BF9D0DF
:104B000043461B68002B01D09C42F3D120002A00B1
:104B10003100B8472469002CEFD14B46002B23D13C
:104B2000280002B0E0BCBA46B146A846F0BD164F18
:104B3000D6E7144B984602E02469002CEDD0236898
:104B4000002BF9D043461B68002B01D0A342F3D1C0
:104B50002A0031002000B8476B460A222000DA7193
:104B6000D91D093AB847E7E750461DF009FDD7E7D8
:104B700040420F00FFFFFF7F2C290020B1490010A9
:104B80007833002084330020A1490010F0B54F464F
:104B90004646D6469946194BC0B5924607000E00C8
:104BA0009846174D43461C68002C03D114E0246935
:104BB000002C11D02B68002B01D0A342F7D1A368A1
:104BC000002BF4D03100380098470028EFDDE0BC1E
:104BD000BA46B146A846F0BD0A4B5B6A994508D86B
:104BE000084A926A524502D302204042EFE79945B3
:104BF000FAD101200021FDF753F9D3E778330020E3
:104C000084330020004005400A4A1368002B05D178
:104C10000CE01A001B691032002B07D08342F8D138
:104C2000002902D118691060196170470029FCD071
:104C30001060FAE77833002010B500F0B3FA10BD29
:104C4000F0B5CE464746040080B583B0FDF71EF9A7
:104C50002600002736184F41002F02DA01261A4F8E
:104C600076421A4B1A4D994601AB98464B461C6842
:104C7000002C03D116E02469002C13D02B68002BE4
:104C800001D09C42F7D1A368002BF4D0012140460B
:104C900098470028EFDD4346187803B0C0BCB946FA
:104CA000B046F0BD0B4B5A6A974207D89B6AB34295
:104CB00002D302204042F0E79742FAD101200021BE
:104CC000FDF7EEF8D2E7C046FFFFFF7F7833002004
:104CD0008433002000400540F0B5CE46474680B5FD
:104CE00083B06B460600DD1D2870FDF7CFF800236A
:104CF000194A12184B41002B02DA0122174B52427B
:104D00001749080089461DF02BFC164B80461C688D
:104D1000002C14D0144F02E02469002C0FD023681B
:104D2000002BF9D03B68002B01D09C42F4D120002D
:104D300001222900FFF73CFE2469002CEFD14346F5
:104D4000002B05D1300003B0C0BCB946B046F0BD61
:104D500048461DF015FCF5E740420F00FFFFFF7FBE
:104D60002C290020783300208433002070B5040003
:104D70001CF048FD01230100050001222000FFF77F
:104D80008BFE084B1C68002C06D06368002B05D0F6
:104D900098472469002CF8D1280070BD2469002CA4
:104DA000F3D1F9E778330020F0B5CE46474680B519
:104DB000A3B004000E00FDF769F80023264A12187C
:104DC0004B41002B02DA0122244B524224481DF0B1
:104DD000C7FB00232200019380463300214801A92C
:104DE000FFF716FD204F019B81463C68002B19D030
:104DF000002C2FD01D4E02E02469002C0FD0236818
:104E0000002BF9D03368002B01D0A342F4D120004D
:104E1000019A02A9FFF7CCFD2469002CEFD10023F1
:104E20003C680193002C06D06368002B0CD0984797
:104E30002469002CF8D14346002B07D1484623B003
:104E4000C0BCB946B046F0BD2469EBE704481DF08C
:104E500097FBF3E70194EEE740420F00FFFFFF7F6F
:104E60002C290020414A0010783300208433002090
:104E70000FB400B583B004A901C90191FFF794FFF5
:104E800003B008BC04B01847024B1860024B19600D
:104E90007047C046143300201833002010B5024B71
:104EA0001878FCF725F810BDEE380020154B70B5CA
:104EB0001A68002A22D0EFF3108172B61068002819
:104EC000FCD0BFF35F8F00200F4A596010701B6841
:104ED000BFF35F8F186081F31088002400250B4E0C
:104EE0003078FBF7F9FF002804D1002400252900C1
:104EF000200070BD3078FBF7FBFFF8E7FA240025AF
:104F0000A400ECE79C370020EF380020EE380020AA
:104F100070B5050000200E0001F080FB002834D0A1
:104F2000002001F091FB00282FD0FCF7AFFF0023F9
:104F3000174A12184B41002B16DB164C20001DF0AF
:104F40000FFB002821D0002001F068FB00280FD1C2
:104F500001200021404200F091FD03256D42200018
:104F60001DF00EFB280070BD01220B4B5242E4E7FE
:104F7000002001F069FB0028EAD02900320000205F
:104F800001F06CFB051EEAD1E7E703256D42E9E776
:104F900040420F00CC380020FFFFFF7F10B5FCF728
:104FA00075FF00230D4A12184B41002B02DA012233
:104FB0000B4B52420B481DF0D3FA00280CD00120B5
:104FC0000021404200F05AFD002001F08BFB002838
:104FD000F5D104481DF0D4FA10BDC04640420F0080
:104FE000FFFFFF7FCC380020F8B5CE46474680B59E
:104FF00005000C00FCF74AFF0023344A12184B410D
:10500000002B02DA0122324B524232490800884614
:105010001DF0A6FA002803D1C0BCB946B046F8BDC1
:10502000002001F0FBFA002848D00026002C41DDCA
:10503000294B994613E0A919002001F08FFB0700C6
:1050400001200021404200F019FD002001F04AFB40
:10505000FCF71CFF204BF61903C3B4422ADD0020E5
:1050600001F09CFBA71B0200B84200DD3A00002AB9
:10507000E1D101200021404200F000FD002001F0BC
:1050800031FB002001F0CAFA002813D0002001F003
:1050900085FB0028E1D1FCF7F9FE4B460F000CCB55
:1050A000002184460D4812184B419F4202D8D4D1AA
:1050B0009445D2D940461DF063FAADE700200021A7
:1050C000054B03C340461DF05BFAA5E740420F00C5
:1050D000FFFFFF7FCC380020882B002020A1070095
:1050E00030B5002185B028481DF0AAFA00281CD14F
:1050F000264B1A68002A16D0EFF3108172B610689A
:105100000028FCD0BFF35F8F01242148596002784A
:105110001B68D2B20470BFF35F8F0020186081F368
:105120001088002A17D005B030BD01200021404270
:1051300000F0A4FC002001F087FA050012481DF0E1
:105140001FFA002DEFD0134B1B68002BEBD0124A37
:1051500010689847E7E7FCF795FB0400FCF796FE1C
:10516000FA220023920012184B41002B02DA01228E
:105170000A4B52420121029100210191084920006D
:105180000091FCF783FBCEE7CC3800209C37002051
:10519000EF3800201433002018330020FFFFFF7F7A
:1051A000AD4E0010D02310B51B0684B01C68FCF770
:1051B00069FBFCF769FCA04202D0002004B010BDDE
:1051C000284B002100201B7801F0AEFC2648036824
:1051D000002B44D00120FCF7EDF8FF23234C244999
:1051E00020701840FBF79CFE20780121FBF762FE3F
:1051F0000520FBF785FE002824D1082200211D4848
:10520000FDF716FFFCF73EFB0400FCF73FFEFA2219
:105210000023920012184B41002B02DA0122164B98
:105220005242012102910021019114492000009174
:10523000FCF72CFB0028C0DB11480121FFF7E4FC40
:105240000120BBE70120FBF7F3FD01000948FCF753
:1052500011F9002205200B49FBF78CFEECE7FCF767
:10526000EDF8B7E7DC840210CC380020EE380020DF
:10527000E15000109C370020FFFFFF7FAD4E001073
:10528000602200209D4E001000487047343B021001
:1052900000487047E03A021010B504001648037841
:1052A000002B20D0002C06D1144B15484380063B20
:1052B000FF3B038010BD052C1CD8124BA400E45802
:1052C0000F480123811C013C04E001330A800231B4
:1052D000142B0CD0E25C002AF7D1C022DBB25B00B9
:1052E00092001343E5E7112100F01EF8DAE7CA2324
:1052F0009B00DEE70020DDE7D43800200904000031
:1053000050330020C83A021010B5024800F0FCF8F3
:1053100010BDC046BC37002010B508220149FDF77A
:105320008DFE10BDBC37002030B5012900D1BBE097
:10533000744B01391A78121114003034092A00DD37
:10534000B5E00470012900D1DAE00F221C78224078
:1053500014003034092A00D9ACE04470022900D18D
:10536000CEE05A789446121114003034092A00DD38
:10537000A3E08470032900D1C2E064460F222240DA
:1053800014003034092A00D99AE0C470042900D1ED
:10539000B6E09A789446121114003034092A00DDE0
:1053A00091E00471052900D1AAE064460F22224051
:1053B00014003034092A00D988E04471062900D14C
:1053C0009EE03025AC46DC7822119444092A00DDA9
:1053D0007FE062468271072900D191E00F222240CE
:1053E00014003034092A00D977E0C471082900D1AB
:1053F00086E03025AC461C7922119444092A00DD50
:105400006EE062460272092900D179E00F22224043
:1054100014003034092A67D844720A2900D16FE099
:105420003025AC465C7922119444092A5FDC62463F
:1054300082720B2964D00F22224014003034092AD2
:1054400059D8C4720C295BD03025AC469C79221106
:105450009444092A02DD0735AC469444624602733F
:105460000D294DD00F22224014003034092A01D9D1
:105470003732140044730E2942D0DA7913111C001C
:105480003034092B01DD37331C0084730F2937D0EA
:105490000F2313401A003732092B01D830331A007A
:1054A000C27310292CD010300023037030BD373266
:1054B000140046E7373214004FE73732140058E73C
:1054C0003732140061E7373214006AE737321400CC
:1054D00073E70735AC4694447BE73732140084E722
:1054E0000735AC4694448CE73732140094E707350F
:1054F000AC4694449BE737321400C4720C29A3D104
:105500004018D1E7BC37002010B588B004000D2248
:1055100000216846FDF78CFD0D22002104A8FDF74F
:1055200087FD6A464B236846137004A900230D22A9
:105530001DF08EF81521082220006944FDF77EFD3C
:1055400008B010BD7047C0460022014B1A7070476A
:10555000ED3800204B790020FF2B0BD18B79002BED
:1055600008D1CB79012B05D1082A03D9024B8A78BF
:1055700009301A707047C046ED380020012070478E
:1055800010B5012913D115495379107909781B02F7
:1055900003430020994200D010BD5378012B08D05E
:1055A000022BF9D1642200210020FCF703FE012028
:1055B000F2E7D17893780902194380230A005B004F
:1055C0001A40194206D00A06D20F480A032319408E
:1055D000FCF778FE01204042F8E7C046ED38002095
:1055E00000487047F03B02109446012310B5012992
:1055F0000AD152780023012A06D1624611795279E4
:1056000012020A43072A01D0180010BDA6336146D2
:10561000024A00F0EBFE0300F6E7C046483B0210EA
:105620000123037000487047143C02104B780A783D
:105630001B0213438A7810B512041A43CB781B0659
:1056400013439622D200934200D010BD00220120C5
:1056500011004042FCF736FEF8B500F03BF90C2390
:10566000194DFF22AB6705201849FBF783FC184C46
:10567000402200212000FDF7DBFC4027002301260B
:105680002121144A66702783A260136063545F313E
:10569000618445396354104A10496360E26027878A
:1056A000A1620B606362E2621CF08AFF80239B05AB
:1056B0002E64EB6490230A4A0120EA508022094BB1
:1056C0005202DA64F8BDC0460000115029050020DE
:1056D0008C330020840010500001105080001050C6
:1056E00010D001000020115010B501210520FBF75A
:1056F000E1FB10BD10B500220021024800F00AF9BC
:1057000010BDC046AC330020044B1970002904D0F2
:1057100080219023024A8902D1507047E738002047
:10572000002011500B785B0600D070474B78052B9A
:10573000FBD18A78014B1A60F7E7C0460000115090
:10574000F8B5CE464746CB7880B59B079A0F100038
:10575000012A58D08C780A794B797F211B0221408D
:10576000E50913434A0091462C4E52195201B218D2
:10577000947001246C40547000245B055B0DD47060
:105780001383D076CA00012D2CD0254FD2198F015A
:10579000BC46B4446746BA60146000292CD0214A44
:1057A000C900891879603F339B09022832D09A01D9
:1057B0004B461D4C5B1921685B01F6181B4B8A1880
:1057C000F16022609A4227D8194A83064A4013435F
:1057D000802212061343726813600120C0BCB946D0
:1057E000B046F8BD134FD2198F01BC46B44467468A
:1057F000BA621460002908D100236D0175196B602D
:105800000D4BEB60E9E70020E8E7094AC900891879
:105810007962C8E7DA01CBE7FCF77CFD8C33002026
:10582000840010500400105098370020FF0F1050D3
:1058300000001050800010500001105010B51CF0F6
:10584000BFFE10BD7F2010B508404000C9094018B8
:105850001100044A400180181A0000F05BF8012092
:1058600010BDC0468C3300207F23180000B50840CF
:1058700083B00B4204D14B424B41084A013393663B
:105880008022C9094000064B401840010021C01881
:1058900012011CF08DFE03B000BDC0460020115067
:1058A0008C3300207F22130010B50B400A4200D138
:1058B00010BDC9095B005B1804485B01C0180023D8
:1058C00000220349C3701CF073FEF1E78C33002003
:1058D000FFF7FFFF80220A4B520410B51A60094BF4
:1058E00009491A6010000B689843FBD180220021FF
:1058F00052010648FDF79CFB0922054B5A6710BD73
:1059000000E0004000F0004008C0004000001050DF
:1059100000001150002310B5C382013382828376C8
:10592000016104001CF09CFE002804D0802190231B
:10593000074A8902D15020001CF0B2FE002802D094
:105940000123237710BD20001CF0F2FDFAE7C046CA
:10595000002011507047C0467047C0460020704775
:10596000002070477047C0467047C0467047C04629
:105970007047C046024B5878431E9841C0B27047EA
:10598000F8300020024B18784007C00F7047C0461F
:10599000F8300020F0B5D6464F464646C0B52C4BF1
:1059A000814698461B788A46FF2B4BD100293BD075
:1059B000002154222748FDF73BFB0022264C274BB1
:1059C00020001A70FBF73AFD254B1C60254C200087
:1059D000143CFBF741FD200001F098FB224B234DC6
:1059E0001C60234B002B04D02800FFF719FE214B2D
:1059F000186000242B78204F1E4E0DE033686201A2
:105A00009B18002B10D05B68002B0DD098470134F9
:105A10002B78E4B2A34209D3A342EFD8E31A5B0187
:105A2000DB195B68002BF1D100200CE042464B46AD
:105A3000514648461370FFF70FFE0028F4D0484641
:105A4000FFF752FE0120E0BCBA46B146A846F0BDC1
:105A500094220020F8300020F0300020E8380020A8
:105A60004C3100208C22002050310020E6380020EC
:105A70002156001010300020DC3C0210F0B5DE464C
:105A800057464E464546E0B5C84B91B003931B7848
:105A9000FF2B00D142E1C64BC64E1F00C64B0DACDA
:105AA0000293C64B019335686A69EFF3108172B6B1
:105AB0001368002BFCD0BFF35F8FA9612800210081
:105AC00001F05AF96A69AB69BFF35F8F0021116079
:105AD00083F31088002800D120E16378082BE2D8F6
